S01C000032303234313231345F5465726D50726F6A6563742E73726563AA
S113000045C0000061C000006EC200005DC0000079
S11300105BC0000059C0000057C0000055C000007C
S113002053C0000051C000004FC000004DC000008C
S1130030F4C1000049C0000047C0000045C00000F2
S113004043C0000041C000003FC000003DC00000AC
S11300503BC0000039C0000037C0000035C00000BC
S113006033C0000031C000002FC000002DC00000CC
S11300702BC0000029C00000AEC2000025C0000053
S113008023C0000021C000001FC0000011241FBEB7
S1130090CFEFD0E1DEBFCDBF11E0A0E0B1E0E0E7FB
S11300A0F1E100E00BBF02C007900D92A43FB1073D
S11300B0D9F721E0A4EFB1E001C01D92AA3FB20735
S11300C0E1F7A3D20C94B6089BCF8FEF8ABB8FE0E5
S11300D0809364000895E5E6F0E090819460908355
S11300E090819D7F908390819160908396EF9A9503
S11300F0F1F78BBB86EF8A95F1F780818E7F808341
S11301000895E5E6F0E090819B7F908390819D7F48
S1130110908390819160908396EF9A95F1F78BBBD1
S113012086EF8A95F1F780818E7F80830895D3DFEF
S113013086E69EE00197F1F700000895CF93DF93E0
S1130140EC0102C0F4DF219688818111FBCFDF919D
S1130150CF91089590E4899F600D1124862F8068C3
S1130160D0CF089581E0CDDF8CEC9CE10197F1F7CD
S113017000C000000895A9DF80E3C3DF8AE09BE3A9
S11301800197F1F780E3BDDF80E791E00197F1F794
S113019000C080E3B6DF80E791E00197F1F700C08B
S11301A088E3AFDF86E69EE00197F1F700008EE07A
S11301B0A8DF86E69EE00197F1F7000081E0A1DF69
S11301C08CEC9CE10197F1F700C0000086E099DF18
S11301D086E69EE00197F1F70000089580EF809392
S11301E061009FEF97BB84BB0895EF92FF920F933A
S11301F01F93CF93DF937C01CEE1D1E08881E2E6C7
S1130200F0E08083C70168EE73E06FD4CB010AE0AD
S113021010E0B8016AD4DC01AA5DBE4F8C9188BBA2
S113022086E69EE00197F1F700002FEF28BB8A8154
S11302308083C70164E670E058D4CB01B80155D47B
S1130240DC01AA5DBE4F8C9188BB86E69EE00197D7
S1130250F1F7000028BB8C818083C701B80145D425
S11302607C01CB01B80141D4DC01AA5DBE4F8C9165
S113027088BB86E69EE00197F1F7000028BB8E81DB
S11302808083D701AA5DBE4F8C9188BB86E69EE031
S11302900197F1F7000028BB1082DF91CF911F91E5
S11302A00F91FF90EF900895CF93DF93CDB7DEB712
S11302B060970FB6F894DEBF0FBECDBF90E1E6E3C2
S11302C0F1E0DE01119601900D929A95E1F78131EA
S11302D060F4E82FF0E0319781E090E08C0F9D1FEF
S11302E0E80FF91F808190E002C08FEF9FEF6096C6
S11302F00FB6F894DEBF0FBECDBFDF91CF91089546
S1130300DC0120E030E00CC0FD01E20FF31F50815E
S1130310FB01E20FF31F908159130AC02F5F3F4F77
S1130320E42FF0E02E173F077CF381E090E008957E
S113033080E090E00895E4E6F0E0808180618083CD
S1130340E5E6F0E080818F7E8083089520E030E050
S113035005C045E04A95F1F72F5F3F4F281739074D
S1130360C0F30895CF92DF92EF92FF920F931F9301
S1130370CF93DF938C0188EA91E6B801B6D37B0171
S1130380C12CD12C0FC0C5E6D0E088818061888360
S1130390C801DCDF88818F7E8883C801D7DF8FEFB7
S11303A0C81AD80ACE14DF0474F3E5E6F0E08081BD
S11303B080618083DF91CF911F910F91FF90EF9027
S11303C0DF90CF90089584E797E0CCDF8BEE95E043
S11303D0C9DF8BEF94E0C6CF0895CF93DF93C0E0DD
S11303E0D0E00AC08BEE95E0BDDF8FEF97E4019774
S11303F0F1F700C000002196C330D1059CF3DF91D2
S1130400CF9108951FBC8AE08EBD82EC95E09BBD20
S11304108ABD87B7806187BF08951F920F920FB678
S11304200F9211240BB60F928F939F93EF93FF9328
S1130430E5E6F0E0908180E189278083FF91EF91E8
S11304409F918F910F900BBE0F900FBE0F901F9036
S1130450189582B1806182B9089582E280938B00FD
S11304608AE180938A0080E090E9909381008093F0
S1130470800082EC9BE09093850080938400089533
S113048082B1806482B982B18F7782B9089583E0A2
S11304908EBD83B18F7B83B981E38A95F1F7000028
S11304A083B1806483B981E38A95F1F7000083B155
S11304B08F7B83B90F9BFECF1DBC1CBC0F99FECF55
S11304C01EBC2CB53DB5220F331F220F331F3695AA
S11304D02795A4E5B1E03ED328EE33E040E050E0B8
S11304E017D3C90108951F920F920FB60F921124CA
S11304F00BB60F922F933F934F935F936F937F931A
S11305008F939F93AF93BF93EF93FF938091F701E2
S11305109091F801892BF9F481E090E09093F8012F
S11305208093F7019093F6018093F5011BDE60E060
S113053080E010DE8AE591E001DE1092F90180E0AE
S113054090E006C0FC01E050FF4F2AE020830196B2
S11305508A309105BCF3FF91EF91BF91AF919F91C8
S11305608F917F916F915F914F913F912F910F9058
S11305700BBE0F900FBE0F901F90189582E089BF9D
S113058088E080936A0081B38D7F81BB82B38260EF
S113059082BB78940895909398008093990088E999
S11305A080939A0086E080939D00089590919B002B
S11305B095FFFCCF80939C000895CF93DF93EC01CB
S11305C002C02196F3DF88818111FBCF8AE0EEDF40
S11305D0DF91CF9108951F920F920FB60F921124BD
S11305E08F9380919C00883531F48091F4018F5F62
S11305F08093F40104C0823511F41092F4018F91B8
S11306000F900FBE0F901F901895CF93DF93CDB727
S1130610DEB7A4970FB6F894DEBF0FBECDBF8AE055
S1130620E6E4F1E0DE01119601900D928A95E1F77E
S11306308AE0E0E5F1E0DE011B9601900D928A95D7
S1130640E1F799DD8FDD60E080E084DD8CE691E008
S113065075DDC4DD93DF6FDEFCDEFFDE11DF87E0D6
S113066090E099DF789484E797E07CDEE12CF12C2C
S1130670612C712CB12CC12C03C0C02E01C0C02E22
S11306808091F5019091F601019741F48091F70171
S11306909091F801892B11F4C301A7DD0FEF41E01C
S11306A03DC085B3806F85BB55B3242F30E0B901BD
S11306B06D5F7F4F81E090E002C0880F991F6A95BB
S11306C0E2F78095852385BB81E38A95F1F70000E5
S11306D083B38F70823081F018F4813031F01DC003
S11306E0843089F08830B1F018C021503109220FCC
S11306F0220F01E0020F11C021503109220F220FF5
S113070002E0020F0AC021503109220F220F03E038
S1130710020F03C0042F000F000F4F5F453008F293
S11307200F3F09F4AACF0C1509F4A9CF802FBCDD23
S11307304C01A82E8091F5019091F601019709F0E2
S113074086C18091F7019091F801892B09F081C14C
S113075099E0981568F1F401FF27EE0FFF1FE65F9B
S1130760FE4F80819181FEDD6B2D81E0F3DC80E31F
S1130770880DDDDCE1E0F0E0EC0FFD1FEB0DF11D79
S11307808082B39429E02B1508F4B12CC30168EEE0
S113079073E0ABD19C01220F331F880F991F880F80
S11307A0991F880F991F820F931F3401680E791EB9
S11307B083E2A81250C14AE0BE01655F7F4FCE01BB
S11307C001969EDD892B09F41AC1FDDDCBDC60E0C6
S11307D080E0C0DC8AE791E0B1DC8EE695E090939E
S11307E08500809384009FEF2FEF89E5915020408E
S11307F08040E1F700C00000812C912CEEC047DE60
S11308009C01ADECBCECA6D13C0176946794769443
S1130810679476946794A6DC7F926F9289E891E05E
S11308209F938F931F9280E18F937E0195E1E90E50
S1130830F11CFF92EF92B1D1C70180DC2FEF8FE75B
S113084096E1215080409040E1F700C000000FB6CF
S1130850F894DEBF0FBECDBF97E06916710420F493
S11308602FEF821A920A02C0812C912C8199B5C073
S113087081E090E09093F8018093F7019093F60162
S11308808093F5011092F90180E090E006C0FC012C
S1130890E050FF4F2AE0208301968A309105BCF393
S11308A061DC60E080E056DC8AE591E047DC8DC0E5
S11308B085B3806F85BB55B3242F30E0B9016D5FDC
S11308C07F4F81E090E002C0880F991F6A95E2F79C
S11308D08095852385BB81E38A95F1F7000083B376
S11308E08F70823081F018F4813031F01DC0843073
S11308F089F08830B1F018C021503109220F220F3D
S113090001E0020F11C021503109220F220F02E031
S1130910020F0AC021503109220F220F03E0020FF7
S113092003C0042F000F000F4F5F02C00FEF41E020
S1130930453008F4BDCF0F3F09F446C00C1509F447
S113094043C0802FB1DC182F8A30A8F46091F901DC
S113095081E000DC80E3810FEADB8091F901E82F7C
S1130960F0E0E050FF4F10838F5F8093F9018A30ED
S113097010F01092F901133239F50DC0FC01E0506A
S1130980FF4F2081EBE0F0E0EC0FFD1FE80FF91FB3
S11309902083019602C080E090E08A30910574F3D0
S11309A01092F8011092F701DDDB60E080E0D2DB09
S11309B088E991E0C3DB9FEF2FEF89E59150204058
S11309C08040E1F700C00000C02E8091F7019091B3
S11309D0F801892B09F0AACF05C096E08916910485
S11309E00CF40DCF82EC9BE09093850080938400FF
S11309F089EA91E0E2DDC02EE12CF12C0CC0EDDCA3
S1130A00B1DB60E080E0A6DB82EB91E097DB2FEFC7
S1130A10E21AF20AC02E8FEF9FEF29E58150904031
S1130A202040E1F700C0000080E090E009C0E1E070
S1130A30F0E0EC0FFD1FE80FF91F2AE02083019678
S1130A408A309105A4F3612C712CB12C05C0C02E01
S1130A5003C0C02E01C0C02E83E2A81211CE809123
S1130A60F7019091F801892B09F00ACE81E090E01A
S1130A702091F5013091F601232B11F080E090E0F4
S1130A809093F6018093F501019741F46BDB60E0EC
S1130A9080E060DB81EC91E051DBF2CD63DB60E070
S1130AA080E058DB81ED91E049DB80E090E009C013
S1130AB0E1E0F0E0EC0FFD1FE80FF91F2AE02083CE
S1130AC001968A309105A4F393E0E916F1040CF43D
S1130AD0D7CD48DB60E080E03DDB8DED91E02EDB9F
S1130AE088EE91E06ADD8EDCCBCD97FB072E16F401
S1130AF0009406D077FD08D03CD007FC05D03EF426
S1130B00909581959F4F0895709561957F4F0895B5
S1130B10A1E21A2EAA1BBB1BFD010DC0AA1FBB1FFD
S1130B20EE1FFF1FA217B307E407F50720F0A21B6F
S1130B30B30BE40BF50B661F771F881F991F1A94DC
S1130B4069F760957095809590959B01AC01BD0106
S1130B50CF010895A29FB001B39FC001A39F700D60
S1130B60811D1124911DB29F700D811D1124911DB1
S1130B700895AA1BBB1B51E107C0AA1FBB1FA617E0
S1130B80B70710F0A61BB70B881F991F5A95A9F732
S1130B9080959095BC01CD0108950F931F93CF9339
S1130BA0DF93CDB7DEB72E970FB6F894DEBF0FBE36
S1130BB0CDBF0D891E898F89988D26E02C831A83D9
S1130BC0098397FF02C080E090E801979E838D839C
S1130BD0AE01455E5F4F698D7A8DCE01019619D0C5
S1130BE04D815E8157FD0AC02F8138854217530716
S1130BF00CF49A01F801E20FF31F10822E960FB63F
S1130C00F894DEBF0FBECDBFDF91CF911F910F913E
S1130C1008952F923F924F925F926F927F928F929C
S1130C209F92AF92BF92CF92DF92EF92FF920F9377
S1130C301F93CF93DF93CDB7DEB72B970FB6F894FE
S1130C40DEBF0FBECDBF6C017B018A01FC011782A0
S1130C501682838181FFBFC1CE0101963C01F6015A
S1130C609381F70193FD859193FF81917F018823FF
S1130C7009F4ADC1853239F493FD859193FF8191D7
S1130C807F01853221F4B60190E0D6D1E8CF912CD2
S1130C90212C312CFFE1F315D8F08B3279F038F4A4
S1130CA0803279F08332A1F4232D20611DC08D326E
S1130CB061F0803369F4232D216016C0832D826096
S1130CC0382EE32DE4603E2E2AC0F32DF8601DC0BB
S1130CD037FC2DC020ED280F2A3040F08E32B9F4B5
S1130CE036FC75C1232D2064322E19C036FE06C091
S1130CF08AE0989E200D1124922E11C0EAE02E9EC7
S1130D00200D1124222EF32DF0623F2E08C08C36C4
S1130D1021F4832D8068382E02C0883641F4F7010F
S1130D2093FD859193FF81917F018111B3CF982F1A
S1130D309F7D9554933028F40C5F1F4F9FE3998354
S1130D400DC0833631F0833771F0833509F055C017
S1130D5020C0F801808189830E5F1F4F882483940B
S1130D60912C530112C02801F2E04F0E511CF801DE
S1130D70A080B18036FE03C0692D70E002C06FEF21
S1130D807FEFC5014ED14C018201F32DFF773F2E39
S1130D9015C0280122E0420E511CF801A080B18048
S1130DA036FE03C0692D70E002C06FEF7FEFC5010E
S1130DB02DD14C01F32DF0683F2E820133FC19C074
S1130DC0822D90E088169906A0F4B60180E290E0A6
S1130DD033D12A94F5CFF50137FC859137FE819103
S1130DE05F01B60190E028D121102A9421E0821AF3
S1130DF091088114910479F7E1C0843611F08936A1
S1130E0039F5F80137FE07C06081718182819381D1
S1130E100C5F1F4F08C060817181072E000C880B86
S1130E20990B0E5F1F4FF32DFF763F2E97FF09C0DE
S1130E3090958095709561957F4F8F4F9F4FF06887
S1130E403F2E2AE030E0A30133D1882E861844C017
S1130E50853731F4232D2F7EB22E2AE030E025C0D1
S1130E60932D997FB92E8F36C1F018F4883579F017
S1130E70AEC0803719F0883721F0A9C0E92FE061AE
S1130E80BE2EB4FE0DC0FB2DF460BF2E09C034FE8F
S1130E900AC0292F2660B22E06C028E030E005C023
S1130EA020E130E002C020E132E0F801B7FE07C0E3
S1130EB060817181828193810C5F1F4F06C06081C4
S1130EC0718180E090E00E5F1F4FA301F1D0882E66
S1130ED08618FB2DFF773F2E36FE0DC0232D2E7F67
S1130EE0A22E891458F434FE0BC032FC09C0832DA1
S1130EF08E7EA82E05C0B82CA32C03C0B82C01C02C
S1130F00B92CA4FE0FC0FE01E80DF11D80818033D1
S1130F1021F49A2D997EA92E09C0A2FE06C0B3948D
S1130F20B39404C08A2D867809F0B394A3FC10C04E
S1130F30A0FE06C0B21480F4280C922C9B180DC09D
S1130F40B21458F4B60180E290E076D0B394F8CFAE
S1130F50B21418F42B1802C0982C212CA4FE0FC034
S1130F60B60180E390E068D0A2FE16C0A1FC03C0E5
S1130F7088E790E002C088E590E0B6010CC08A2DB5
S1130F80867851F0A1FE02C08BE201C080E2A7FC8A
S1130F908DE2B60190E050D0891430F4B60180E3BC
S1130FA090E04AD09A94F8CF8A94F301E80DF11DA9
S1130FB08081B60190E040D08110F6CF222009F460
S1130FC04ECEB60180E290E037D02A94F7CFF601F6
S1130FD08681978102C08FEF9FEF2B960FB6F8940E
S1130FE0DEBF0FBECDBFDF91CF911F910F91FF9058
S1130FF0EF90DF90CF90BF90AF909F908F907F90B5
S11310006F905F904F903F902F900895FC01059052
S1131010615070400110D8F7809590958E0F9F1FF6
S11310200895FC016150704001900110D8F780953B
S113103090958E0F9F1F08950F931F93CF93DF9367
S1131040FB01238121FD03C08FEF9FEF2CC022FF02
S113105016C046815781248135814217530744F4D1
S1131060A081B1819D012F5F3F4F318320838C93F9
S1131070268137812F5F3F4F3783268314C08B012E
S1131080EC01FB010084F185E02D0995892BE1F643
S1131090D80116968D919C911797019617969C935B
S11310A08E931697CE01DF91CF911F910F910895E2
S11310B0FA01AA27283051F1203181F1E8946F9385
S11310C06E7F6E5F7F4F8F4F9F4FAF4FB1E03ED02B
S11310D0B4E03CD0670F781F891F9A1FA11D680FC9
S11310E0791F8A1F911DA11D6A0F711D811D911DFC
S11310F0A11D20D009F468943F912AE0269F112471
S11311003019305D3193DEF6CF010895462F4770D4
S1131110405D4193B3E00FD0C9F7F6CF462F4F702F
S1131120405D4A3318F0495D31FD4052419302D08D
S1131130A9F7EACFB4E0A695979587957795679533
S1131140BA95C9F700976105710508959B01AC0133
S11311500A2E06945795479537952795BA95C9F75A
S1131160620F731F841F951FA01D0895F894FFCF6D
S11311700A0A0A0A0A0A0A0A0A0AF7027407A406E9
S1131180EB059805FB047004F403BC0354031F002F
S11311902F004F008F00C0F9A4B0999282D880909C
S11311A08883C4A1848E0102034104050642070812
S11311B009432A0023440A0A0A0A0A0A0A0A0A0AEA
S11311C0020305060A0A0A0A0A0A536574204E65D0
S11311D0772050617373776F72643A00537461724D
S11311E0742053657474696E670050617373776F0C
S11311F07264204D617463680044697374616E6342
S1131200653A202564636D0050617373776F72646F
S1131210204368616E676564004172726976656433
S11312200A0057726F6E672050617373776F726430
S113123000456E7465722050617373776F72643AFF
S11312400044656163746976617465640057415252
S11312504E494E47212121005741524E494E4721C4
S107126021210A003A
S9030000FC
